{
  "_format": "hh-sol-artifact-1",
  "contractName": "Weppo",
  "sourceName": "src/Weppo.sol",
  "abi": [
    {
      "inputs": [
        {
          "internalType": "address",
          "name": "_usdc",
          "type": "address"
        },
        {
          "internalType": "address",
          "name": "_trustedForwarder",
          "type": "address"
        }
      ],
      "stateMutability": "nonpayable",
      "type": "constructor"
    },
    {
      "inputs": [
        {
          "internalType": "address",
          "name": "owner",
          "type": "address"
        }
      ],
      "name": "OwnableInvalidOwner",
      "type": "error"
    },
    {
      "inputs": [
        {
          "internalType": "address",
          "name": "account",
          "type": "address"
        }
      ],
      "name": "OwnableUnauthorizedAccount",
      "type": "error"
    },
    {
      "anonymous": false,
      "inputs": [
        {
          "indexed": true,
          "internalType": "address",
          "name": "owner",
          "type": "address"
        },
        {
          "indexed": true,
          "internalType": "address",
          "name": "spender",
          "type": "address"
        },
        {
          "indexed": false,
          "internalType": "uint256",
          "name": "amount",
          "type": "uint256"
        }
      ],
      "name": "Approval",
      "type": "event"
    },
    {
      "anonymous": false,
      "inputs": [
        {
          "indexed": true,
          "internalType": "address",
          "name": "agent",
          "type": "address"
        },
        {
          "indexed": false,
          "internalType": "uint256",
          "name": "amount",
          "type": "uint256"
        }
      ],
      "name": "Deposit",
      "type": "event"
    },
    {
      "anonymous": false,
      "inputs": [
        {
          "indexed": true,
          "internalType": "address",
          "name": "previousOwner",
          "type": "address"
        },
        {
          "indexed": true,
          "internalType": "address",
          "name": "newOwner",
          "type": "address"
        }
      ],
      "name": "OwnershipTransferred",
      "type": "event"
    },
    {
      "anonymous": false,
      "inputs": [
        {
          "indexed": true,
          "internalType": "address",
          "name": "from",
          "type": "address"
        },
        {
          "indexed": true,
          "internalType": "address",
          "name": "to",
          "type": "address"
        },
        {
          "indexed": false,
          "internalType": "uint256",
          "name": "amount",
          "type": "uint256"
        },
        {
          "indexed": false,
          "internalType": "string",
          "name": "memo",
          "type": "string"
        }
      ],
      "name": "Settlement",
      "type": "event"
    },
    {
      "anonymous": false,
      "inputs": [
        {
          "indexed": true,
          "internalType": "address",
          "name": "agent",
          "type": "address"
        },
        {
          "indexed": false,
          "internalType": "uint256",
          "name": "amount",
          "type": "uint256"
        }
      ],
      "name": "Withdrawal",
      "type": "event"
    },
    {
      "inputs": [
        {
          "internalType": "address",
          "name": "",
          "type": "address"
        },
        {
          "internalType": "address",
          "name": "",
          "type": "address"
        }
      ],
      "name": "allowances",
      "outputs": [
        {
          "internalType": "uint256",
          "name": "",
          "type": "uint256"
        }
      ],
      "stateMutability": "view",
      "type": "function"
    },
    {
      "inputs": [
        {
          "internalType": "address",
          "name": "",
          "type": "address"
        }
      ],
      "name": "balances",
      "outputs": [
        {
          "internalType": "uint256",
          "name": "",
          "type": "uint256"
        }
      ],
      "stateMutability": "view",
      "type": "function"
    },
    {
      "inputs": [
        {
          "internalType": "address",
          "name": "from",
          "type": "address"
        },
        {
          "internalType": "uint256",
          "name": "amount",
          "type": "uint256"
        },
        {
          "internalType": "string",
          "name": "memo",
          "type": "string"
        }
      ],
      "name": "charge",
      "outputs": [],
      "stateMutability": "nonpayable",
      "type": "function"
    },
    {
      "inputs": [
        {
          "internalType": "uint256",
          "name": "amount",
          "type": "uint256"
        }
      ],
      "name": "deposit",
      "outputs": [],
      "stateMutability": "nonpayable",
      "type": "function"
    },
    {
      "inputs": [
        {
          "internalType": "address",
          "name": "forwarder",
          "type": "address"
        }
      ],
      "name": "isTrustedForwarder",
      "outputs": [
        {
          "internalType": "bool",
          "name": "",
          "type": "bool"
        }
      ],
      "stateMutability": "view",
      "type": "function"
    },
    {
      "inputs": [],
      "name": "owner",
      "outputs": [
        {
          "internalType": "address",
          "name": "",
          "type": "address"
        }
      ],
      "stateMutability": "view",
      "type": "function"
    },
    {
      "inputs": [
        {
          "internalType": "address",
          "name": "spender",
          "type": "address"
        },
        {
          "internalType": "uint256",
          "name": "maxAmount",
          "type": "uint256"
        }
      ],
      "name": "preAuthorize",
      "outputs": [],
      "stateMutability": "nonpayable",
      "type": "function"
    },
    {
      "inputs": [],
      "name": "renounceOwnership",
      "outputs": [],
      "stateMutability": "nonpayable",
      "type": "function"
    },
    {
      "inputs": [
        {
          "internalType": "address",
          "name": "newOwner",
          "type": "address"
        }
      ],
      "name": "transferOwnership",
      "outputs": [],
      "stateMutability": "nonpayable",
      "type": "function"
    },
    {
      "inputs": [],
      "name": "trustedForwarder",
      "outputs": [
        {
          "internalType": "address",
          "name": "",
          "type": "address"
        }
      ],
      "stateMutability": "view",
      "type": "function"
    },
    {
      "inputs": [],
      "name": "usdc",
      "outputs": [
        {
          "internalType": "contract IERC20",
          "name": "",
          "type": "address"
        }
      ],
      "stateMutability": "view",
      "type": "function"
    },
    {
      "inputs": [
        {
          "internalType": "uint256",
          "name": "amount",
          "type": "uint256"
        }
      ],
      "name": "withdraw",
      "outputs": [],
      "stateMutability": "nonpayable",
      "type": "function"
    }
  ],
  "bytecode": "0x60a06040523480156200001157600080fd5b5060405162001a4c38038062001a4c833981810160405281019062000037919062000274565b33818073ffffffffffffffffffffffffffffffffffffffff1660808173ffffffffffffffffffffffffffffffffffffffff168152505050600073ffffffffffffffffffffffffffffffffffffffff168173ffffffffffffffffffffffffffffffffffffffff1603620000e35760006040517f1e4fbdf7000000000000000000000000000000000000000000000000000000008152600401620000da9190620002cc565b60405180910390fd5b620000f4816200014660201b60201c565b5081600160006101000a81548173ffffffffffffffffffffffffffffffffffffffff021916908373ffffffffffffffffffffffffffffffffffffffff16021790555060016002819055505050620002e9565b60008060009054906101000a900473ffffffffffffffffffffffffffffffffffffffff169050816000806101000a81548173ffffffffffffffffffffffffffffffffffffffff021916908373ffffffffffffffffffffffffffffffffffffffff1602179055508173ffffffffffffffffffffffffffffffffffffffff168173ffffffffffffffffffffffffffffffffffffffff167f8be0079c531659141344cd1fd0a4f28419497f9722a3daafe3b4186f6b6457e060405160405180910390a35050565b600080fd5b600073ffffffffffffffffffffffffffffffffffffffff82169050919050565b60006200023c826200020f565b9050919050565b6200024e816200022f565b81146200025a57600080fd5b50565b6000815190506200026e8162000243565b92915050565b600080604083850312156200028e576200028d6200020a565b5b60006200029e858286016200025d565b9250506020620002b1858286016200025d565b9150509250929050565b620002c6816200022f565b82525050565b6000602082019050620002e36000830184620002bb565b92915050565b60805161174762000305600039600061055b01526117476000f3fe608060405234801561001057600080fd5b50600436106100b45760003560e01c80637da0a877116100715780637da0a8771461018d5780637db738a3146101ab5780638da5cb5b146101c7578063b6b55f25146101e5578063c59239ca14610201578063f2fde38b1461021d576100b4565b806327e235e3146100b95780632e1a7d4d146100e95780633e413bee1461010557806355b6ed5c14610123578063572b6c0514610153578063715018a614610183575b600080fd5b6100d360048036038101906100ce9190610eb1565b610239565b6040516100e09190610ef7565b60405180910390f35b61010360048036038101906100fe9190610f3e565b610251565b005b61010d6104b9565b60405161011a9190610fca565b60405180910390f35b61013d60048036038101906101389190610fe5565b6104df565b60405161014a9190610ef7565b60405180910390f35b61016d60048036038101906101689190610eb1565b610504565b60405161017a9190611040565b60405180910390f35b61018b610543565b005b610195610557565b6040516101a2919061106a565b60405180910390f35b6101c560048036038101906101c09190611085565b61057f565b005b6101cf610676565b6040516101dc919061106a565b60405180910390f35b6101ff60048036038101906101fa9190610f3e565b61069f565b005b61021b6004803603810190610216919061120b565b610887565b005b61023760048036038101906102329190610eb1565b610bd3565b005b60036020528060005260406000206000915090505481565b6002805403610295576040517f08c379a000000000000000000000000000000000000000000000000000000000815260040161028c906112d7565b60405180910390fd5b6002808190555060006102a6610c59565b905081600360008373ffffffffffffffffffffffffffffffffffffffff1673ffffffffffffffffffffffffffffffffffffffff16815260200190815260200160002054101561032a576040517f08c379a000000000000000000000000000000000000000000000000000000000815260040161032190611343565b60405180910390fd5b81600360008373ffffffffffffffffffffffffffffffffffffffff1673ffffffffffffffffffffffffffffffffffffffff16815260200190815260200160002060008282546103799190611392565b92505081905550600160009054906101000a900473ffffffffffffffffffffffffffffffffffffffff1673ffffffffffffffffffffffffffffffffffffffff1663a9059cbb82846040518363ffffffff1660e01b81526004016103dd9291906113c6565b6020604051808303816000875af11580156103fc573d6000803e3d6000fd5b505050506040513d601f19601f82011682018060405250810190610420919061141b565b61045f576040517f08c379a000000000000000000000000000000000000000000000000000000000815260040161045690611494565b60405180910390fd5b8073ffffffffffffffffffffffffffffffffffffffff167f7fcf532c15f0a6db0bd6d0e038bea71d30d808c7d98cb3bf7268a95bf5081b65836040516104a59190610ef7565b60405180910390a250600160028190555050565b600160009054906101000a900473ffffffffffffffffffffffffffffffffffffffff1681565b6004602052816000526040600020602052806000526040600020600091509150505481565b600061050e610557565b73ffffffffffffffffffffffffffffffffffffffff168273ffffffffffffffffffffffffffffffffffffffff16149050919050565b61054b610c68565b6105556000610cef565b565b60007f0000000000000000000000000000000000000000000000000000000000000000905090565b6000610589610c59565b905081600460008373ffffffffffffffffffffffffffffffffffffffff1673ffffffffffffffffffffffffffffffffffffffff16815260200190815260200160002060008573ffffffffffffffffffffffffffffffffffffffff1673ffffffffffffffffffffffffffffffffffffffff168152602001908152602001600020819055508273ffffffffffffffffffffffffffffffffffffffff168173ffffffffffffffffffffffffffffffffffffffff167f8c5be1e5ebec7d5bd14f71427d1e84f3dd0314c0f7b2291e5b200ac8c7c3b925846040516106699190610ef7565b60405180910390a3505050565b60008060009054906101000a900473ffffffffffffffffffffffffffffffffffffffff16905090565b60028054036106e3576040517f08c379a00000000000000000000000000000000000000000000000000000000081526004016106da906112d7565b60405180910390fd5b6002808190555060006106f4610c59565b9050600160009054906101000a900473ffffffffffffffffffffffffffffffffffffffff1673ffffffffffffffffffffffffffffffffffffffff166323b872dd8230856040518463ffffffff1660e01b8152600401610755939291906114b4565b6020604051808303816000875af1158015610774573d6000803e3d6000fd5b505050506040513d601f19601f82011682018060405250810190610798919061141b565b6107d7576040517f08c379a00000000000000000000000000000000000000000000000000000000081526004016107ce90611494565b60405180910390fd5b81600360008373ffffffffffffffffffffffffffffffffffffffff1673ffffffffffffffffffffffffffffffffffffffff168152602001908152602001600020600082825461082691906114eb565b925050819055508073ffffffffffffffffffffffffffffffffffffffff167fe1fffcc4923d04b559f4d29a8bfc6cda04eb5b0d3c460751c2402c5c5cc9109c836040516108739190610ef7565b60405180910390a250600160028190555050565b60028054036108cb576040517f08c379a00000000000000000000000000000000000000000000000000000000081526004016108c2906112d7565b60405180910390fd5b6002808190555060006108dc610c59565b905082600460008673ffffffffffffffffffffffffffffffffffffffff1673ffffffffffffffffffffffffffffffffffffffff16815260200190815260200160002060008373ffffffffffffffffffffffffffffffffffffffff1673ffffffffffffffffffffffffffffffffffffffff16815260200190815260200160002054101561099d576040517f08c379a00000000000000000000000000000000000000000000000000000000081526004016109949061156b565b60405180910390fd5b82600360008673ffffffffffffffffffffffffffffffffffffffff1673ffffffffffffffffffffffffffffffffffffffff168152602001908152602001600020541015610a1f576040517f08c379a0000000000000000000000000000000000000000000000000000000008152600401610a1690611343565b60405180910390fd5b82600460008673ffffffffffffffffffffffffffffffffffffffff1673ffffffffffffffffffffffffffffffffffffffff16815260200190815260200160002060008373ffffffffffffffffffffffffffffffffffffffff1673ffffffffffffffffffffffffffffffffffffffff1681526020019081526020016000206000828254610aab9190611392565b9250508190555082600360008673ffffffffffffffffffffffffffffffffffffffff1673ffffffffffffffffffffffffffffffffffffffff1681526020019081526020016000206000828254610b019190611392565b9250508190555082600360008373ffffffffffffffffffffffffffffffffffffffff1673ffffffffffffffffffffffffffffffffffffffff1681526020019081526020016000206000828254610b5791906114eb565b925050819055508073ffffffffffffffffffffffffffffffffffffffff168473ffffffffffffffffffffffffffffffffffffffff167fac07f52a89d13cd38d5326aebd53aec39086fc97fcfa4cf54a2276952b67dc618585604051610bbd9291906115f9565b60405180910390a3506001600281905550505050565b610bdb610c68565b600073ffffffffffffffffffffffffffffffffffffffff168173ffffffffffffffffffffffffffffffffffffffff1603610c4d5760006040517f1e4fbdf7000000000000000000000000000000000000000000000000000000008152600401610c44919061106a565b60405180910390fd5b610c5681610cef565b50565b6000610c63610db3565b905090565b610c70610c59565b73ffffffffffffffffffffffffffffffffffffffff16610c8e610676565b73ffffffffffffffffffffffffffffffffffffffff1614610ced57610cb1610c59565b6040517f118cdaa7000000000000000000000000000000000000000000000000000000008152600401610ce4919061106a565b60405180910390fd5b565b60008060009054906101000a900473ffffffffffffffffffffffffffffffffffffffff169050816000806101000a81548173ffffffffffffffffffffffffffffffffffffffff021916908373ffffffffffffffffffffffffffffffffffffffff1602179055508173ffffffffffffffffffffffffffffffffffffffff168173ffffffffffffffffffffffffffffffffffffffff167f8be0079c531659141344cd1fd0a4f28419497f9722a3daafe3b4186f6b6457e060405160405180910390a35050565b600080600036905090506000610dc7610e1f565b9050808210158015610dde5750610ddd33610504565b5b15610e0f57600036828403908092610df893929190611633565b90610e0391906116b2565b60601c92505050610e1c565b610e17610e2e565b925050505b90565b6000610e29610e36565b905090565b600033905090565b60006014905090565b6000604051905090565b600080fd5b600080fd5b600073ffffffffffffffffffffffffffffffffffffffff82169050919050565b6000610e7e82610e53565b9050919050565b610e8e81610e73565b8114610e9957600080fd5b50565b600081359050610eab81610e85565b92915050565b600060208284031215610ec757610ec6610e49565b5b6000610ed584828501610e9c565b91505092915050565b6000819050919050565b610ef181610ede565b82525050565b6000602082019050610f0c6000830184610ee8565b92915050565b610f1b81610ede565b8114610f2657600080fd5b50565b600081359050610f3881610f12565b92915050565b600060208284031215610f5457610f53610e49565b5b6000610f6284828501610f29565b91505092915050565b6000819050919050565b6000610f90610f8b610f8684610e53565b610f6b565b610e53565b9050919050565b6000610fa282610f75565b9050919050565b6000610fb482610f97565b9050919050565b610fc481610fa9565b82525050565b6000602082019050610fdf6000830184610fbb565b92915050565b60008060408385031215610ffc57610ffb610e49565b5b600061100a85828601610e9c565b925050602061101b85828601610e9c565b9150509250929050565b60008115159050919050565b61103a81611025565b82525050565b60006020820190506110556000830184611031565b92915050565b61106481610e73565b82525050565b600060208201905061107f600083018461105b565b92915050565b6000806040838503121561109c5761109b610e49565b5b60006110aa85828601610e9c565b92505060206110bb85828601610f29565b9150509250929050565b600080fd5b600080fd5b6000601f19601f8301169050919050565b7f4e487b7100000000000000000000000000000000000000000000000000000000600052604160045260246000fd5b611118826110cf565b810181811067ffffffffffffffff82111715611137576111366110e0565b5b80604052505050565b600061114a610e3f565b9050611156828261110f565b919050565b600067ffffffffffffffff821115611176576111756110e0565b5b61117f826110cf565b9050602081019050919050565b82818337600083830152505050565b60006111ae6111a98461115b565b611140565b9050828152602081018484840111156111ca576111c96110ca565b5b6111d584828561118c565b509392505050565b600082601f8301126111f2576111f16110c5565b5b813561120284826020860161119b565b91505092915050565b60008060006060848603121561122457611223610e49565b5b600061123286828701610e9c565b935050602061124386828701610f29565b925050604084013567ffffffffffffffff81111561126457611263610e4e565b5b611270868287016111dd565b9150509250925092565b600082825260208201905092915050565b7f5265656e7472616e637947756172643a207265656e7472616e742063616c6c00600082015250565b60006112c1601f8361127a565b91506112cc8261128b565b602082019050919050565b600060208201905081810360008301526112f0816112b4565b9050919050565b7f496e73756666696369656e742062616c616e6365000000000000000000000000600082015250565b600061132d60148361127a565b9150611338826112f7565b602082019050919050565b6000602082019050818103600083015261135c81611320565b9050919050565b7f4e487b7100000000000000000000000000000000000000000000000000000000600052601160045260246000fd5b600061139d82610ede565b91506113a883610ede565b92508282039050818111156113c0576113bf611363565b5b92915050565b60006040820190506113db600083018561105b565b6113e86020830184610ee8565b9392505050565b6113f881611025565b811461140357600080fd5b50565b600081519050611415816113ef565b92915050565b60006020828403121561143157611430610e49565b5b600061143f84828501611406565b91505092915050565b7f5472616e73666572206661696c65640000000000000000000000000000000000600082015250565b600061147e600f8361127a565b915061148982611448565b602082019050919050565b600060208201905081810360008301526114ad81611471565b9050919050565b60006060820190506114c9600083018661105b565b6114d6602083018561105b565b6114e36040830184610ee8565b949350505050565b60006114f682610ede565b915061150183610ede565b925082820190508082111561151957611518611363565b5b92915050565b7f496e73756666696369656e7420616c6c6f77616e636500000000000000000000600082015250565b600061155560168361127a565b91506115608261151f565b602082019050919050565b6000602082019050818103600083015261158481611548565b9050919050565b600081519050919050565b60005b838110156115b4578082015181840152602081019050611599565b60008484015250505050565b60006115cb8261158b565b6115d5818561127a565b93506115e5818560208601611596565b6115ee816110cf565b840191505092915050565b600060408201905061160e6000830185610ee8565b818103602083015261162081846115c0565b90509392505050565b600080fd5b600080fd5b6000808585111561164757611646611629565b5b838611156116585761165761162e565b5b6001850283019150848603905094509492505050565b600082905092915050565b60007fffffffffffffffffffffffffffffffffffffffff00000000000000000000000082169050919050565b600082821b905092915050565b60006116be838361166e565b826116c98135611679565b92506014821015611709576117047fffffffffffffffffffffffffffffffffffffffff000000000000000000000000836014036008026116a5565b831692505b50509291505056fea26469706673582212208dd1431d06d76312b1f2349efa8e91c63f1e9aad33425f3ea179464409f6207564736f6c63430008140033",
  "linkReferences": {},
  "deployedLinkReferences": {}
}