{
  "_format": "hh-sol-artifact-1",
  "contractName": "MerchantGateway",
  "sourceName": "src/MerchantGateway.sol",
  "abi": [
    {
      "inputs": [
        {
          "internalType": "address",
          "name": "_usdcAddress",
          "type": "address"
        }
      ],
      "stateMutability": "nonpayable",
      "type": "constructor"
    },
    {
      "anonymous": false,
      "inputs": [
        {
          "indexed": true,
          "internalType": "address",
          "name": "agent",
          "type": "address"
        },
        {
          "indexed": true,
          "internalType": "uint256",
          "name": "productId",
          "type": "uint256"
        },
        {
          "indexed": false,
          "internalType": "uint256",
          "name": "amount",
          "type": "uint256"
        },
        {
          "indexed": false,
          "internalType": "string",
          "name": "memo",
          "type": "string"
        }
      ],
      "name": "PaymentReceived",
      "type": "event"
    },
    {
      "anonymous": false,
      "inputs": [
        {
          "indexed": true,
          "internalType": "uint256",
          "name": "productId",
          "type": "uint256"
        },
        {
          "indexed": false,
          "internalType": "string",
          "name": "name",
          "type": "string"
        },
        {
          "indexed": false,
          "internalType": "uint256",
          "name": "price",
          "type": "uint256"
        }
      ],
      "name": "ProductAdded",
      "type": "event"
    },
    {
      "inputs": [
        {
          "internalType": "uint256",
          "name": "_productId",
          "type": "uint256"
        },
        {
          "internalType": "string",
          "name": "_memo",
          "type": "string"
        }
      ],
      "name": "buy",
      "outputs": [],
      "stateMutability": "nonpayable",
      "type": "function"
    },
    {
      "inputs": [
        {
          "internalType": "uint256",
          "name": "_productId",
          "type": "uint256"
        }
      ],
      "name": "getPrice",
      "outputs": [
        {
          "internalType": "uint256",
          "name": "",
          "type": "uint256"
        }
      ],
      "stateMutability": "view",
      "type": "function"
    },
    {
      "inputs": [],
      "name": "merchant",
      "outputs": [
        {
          "internalType": "address",
          "name": "",
          "type": "address"
        }
      ],
      "stateMutability": "view",
      "type": "function"
    },
    {
      "inputs": [
        {
          "internalType": "uint256",
          "name": "",
          "type": "uint256"
        }
      ],
      "name": "productIds",
      "outputs": [
        {
          "internalType": "uint256",
          "name": "",
          "type": "uint256"
        }
      ],
      "stateMutability": "view",
      "type": "function"
    },
    {
      "inputs": [
        {
          "internalType": "uint256",
          "name": "",
          "type": "uint256"
        }
      ],
      "name": "products",
      "outputs": [
        {
          "internalType": "string",
          "name": "name",
          "type": "string"
        },
        {
          "internalType": "uint256",
          "name": "price",
          "type": "uint256"
        },
        {
          "internalType": "bool",
          "name": "exists",
          "type": "bool"
        }
      ],
      "stateMutability": "view",
      "type": "function"
    },
    {
      "inputs": [
        {
          "internalType": "uint256",
          "name": "_productId",
          "type": "uint256"
        },
        {
          "internalType": "string",
          "name": "_name",
          "type": "string"
        },
        {
          "internalType": "uint256",
          "name": "_price",
          "type": "uint256"
        }
      ],
      "name": "setProduct",
      "outputs": [],
      "stateMutability": "nonpayable",
      "type": "function"
    },
    {
      "inputs": [],
      "name": "usdc",
      "outputs": [
        {
          "internalType": "contract IERC20",
          "name": "",
          "type": "address"
        }
      ],
      "stateMutability": "view",
      "type": "function"
    },
    {
      "inputs": [],
      "name": "withdraw",
      "outputs": [],
      "stateMutability": "nonpayable",
      "type": "function"
    }
  ],
  "bytecode": "0x60806040523480156200001157600080fd5b50604051620015fb380380620015fb833981810160405281019062000037919062000129565b336000806101000a81548173ffffffffffffffffffffffffffffffffffffffff021916908373ffffffffffffffffffffffffffffffffffffffff16021790555080600160006101000a81548173ffffffffffffffffffffffffffffffffffffffff021916908373ffffffffffffffffffffffffffffffffffffffff160217905550506200015b565b600080fd5b600073ffffffffffffffffffffffffffffffffffffffff82169050919050565b6000620000f182620000c4565b9050919050565b6200010381620000e4565b81146200010f57600080fd5b50565b6000815190506200012381620000f8565b92915050565b600060208284031215620001425762000141620000bf565b5b6000620001528482850162000112565b91505092915050565b611490806200016b6000396000f3fe608060405234801561001057600080fd5b50600436106100885760003560e01c8063b7dc3b181161005b578063b7dc3b1814610105578063cb51bba914610121578063da96832a14610151578063e75722301461016d57610088565b80633ccfd60b1461008d5780633e413bee146100975780637acc0b20146100b5578063a5ff7651146100e7575b600080fd5b61009561019d565b005b61009f610410565b6040516100ac9190610a2e565b60405180910390f35b6100cf60048036038101906100ca9190610a93565b610436565b6040516100de93929190610b7a565b60405180910390f35b6100ef6104f5565b6040516100fc9190610bd9565b60405180910390f35b61011f600480360381019061011a9190610d29565b610519565b005b61013b60048036038101906101369190610a93565b610775565b6040516101489190610d85565b60405180910390f35b61016b60048036038101906101669190610da0565b610799565b005b61018760048036038101906101829190610a93565b61092c565b6040516101949190610d85565b60405180910390f35b60008054906101000a900473ffffffffffffffffffffffffffffffffffffffff1673ffffffffffffffffffffffffffffffffffffffff163373ffffffffffffffffffffffffffffffffffffffff161461022b576040517f08c379a000000000000000000000000000000000000000000000000000000000815260040161022290610e5b565b60405180910390fd5b6000600160009054906101000a900473ffffffffffffffffffffffffffffffffffffffff1673ffffffffffffffffffffffffffffffffffffffff166370a08231306040518263ffffffff1660e01b81526004016102889190610bd9565b602060405180830381865afa1580156102a5573d6000803e3d6000fd5b505050506040513d601f19601f820116820180604052508101906102c99190610e90565b90506000811161030e576040517f08c379a000000000000000000000000000000000000000000000000000000000815260040161030590610f09565b60405180910390fd5b600160009054906101000a900473ffffffffffffffffffffffffffffffffffffffff1673ffffffffffffffffffffffffffffffffffffffff1663a9059cbb60008054906101000a900473ffffffffffffffffffffffffffffffffffffffff16836040518363ffffffff1660e01b815260040161038b929190610f29565b6020604051808303816000875af11580156103aa573d6000803e3d6000fd5b505050506040513d601f19601f820116820180604052508101906103ce9190610f7e565b61040d576040517f08c379a000000000000000000000000000000000000000000000000000000000815260040161040490610ff7565b60405180910390fd5b50565b600160009054906101000a900473ffffffffffffffffffffffffffffffffffffffff1681565b600260205280600052604060002060009150905080600001805461045990611046565b80601f016020809104026020016040519081016040528092919081815260200182805461048590611046565b80156104d25780601f106104a7576101008083540402835291602001916104d2565b820191906000526020600020905b8154815290600101906020018083116104b557829003601f168201915b5050505050908060010154908060020160009054906101000a900460ff16905083565b60008054906101000a900473ffffffffffffffffffffffffffffffffffffffff1681565b60006002600084815260200190815260200160002060405180606001604052908160008201805461054990611046565b80601f016020809104026020016040519081016040528092919081815260200182805461057590611046565b80156105c25780601f10610597576101008083540402835291602001916105c2565b820191906000526020600020905b8154815290600101906020018083116105a557829003601f168201915b50505050508152602001600182015481526020016002820160009054906101000a900460ff16151515158152505090508060400151610636576040517f08c379a000000000000000000000000000000000000000000000000000000000815260040161062d906110c3565b60405180910390fd5b600160009054906101000a900473ffffffffffffffffffffffffffffffffffffffff1673ffffffffffffffffffffffffffffffffffffffff166323b872dd333084602001516040518463ffffffff1660e01b8152600401610699939291906110e3565b6020604051808303816000875af11580156106b8573d6000803e3d6000fd5b505050506040513d601f19601f820116820180604052508101906106dc9190610f7e565b61071b576040517f08c379a000000000000000000000000000000000000000000000000000000000815260040161071290611166565b60405180910390fd5b823373ffffffffffffffffffffffffffffffffffffffff167f237b94339b1dc667f5a951cf2ee33f00228f658a6ab811cc6afa6caaa4b80cfa836020015185604051610768929190611186565b60405180910390a3505050565b6003818154811061078557600080fd5b906000526020600020016000915090505481565b60008054906101000a900473ffffffffffffffffffffffffffffffffffffffff1673ffffffffffffffffffffffffffffffffffffffff163373ffffffffffffffffffffffffffffffffffffffff1614610827576040517f08c379a000000000000000000000000000000000000000000000000000000000815260040161081e90610e5b565b60405180910390fd5b6002600084815260200190815260200160002060020160009054906101000a900460ff166108795760038390806001815401808255809150506001900390600052602060002001600090919091909150555b6040518060600160405280838152602001828152602001600115158152506002600085815260200190815260200160002060008201518160000190816108bf9190611358565b506020820151816001015560408201518160020160006101000a81548160ff021916908315150217905550905050827fcca07c742c5274e8b72111ba69566aa4442450bfc50bd897ea38d0170d1accfc838360405161091f92919061142a565b60405180910390a2505050565b60006002600083815260200190815260200160002060020160009054906101000a900460ff16610991576040517f08c379a0000000000000000000000000000000000000000000000000000000008152600401610988906110c3565b60405180910390fd5b60026000838152602001908152602001600020600101549050919050565b600073ffffffffffffffffffffffffffffffffffffffff82169050919050565b6000819050919050565b60006109f46109ef6109ea846109af565b6109cf565b6109af565b9050919050565b6000610a06826109d9565b9050919050565b6000610a18826109fb565b9050919050565b610a2881610a0d565b82525050565b6000602082019050610a436000830184610a1f565b92915050565b6000604051905090565b600080fd5b600080fd5b6000819050919050565b610a7081610a5d565b8114610a7b57600080fd5b50565b600081359050610a8d81610a67565b92915050565b600060208284031215610aa957610aa8610a53565b5b6000610ab784828501610a7e565b91505092915050565b600081519050919050565b600082825260208201905092915050565b60005b83811015610afa578082015181840152602081019050610adf565b60008484015250505050565b6000601f19601f8301169050919050565b6000610b2282610ac0565b610b2c8185610acb565b9350610b3c818560208601610adc565b610b4581610b06565b840191505092915050565b610b5981610a5d565b82525050565b60008115159050919050565b610b7481610b5f565b82525050565b60006060820190508181036000830152610b948186610b17565b9050610ba36020830185610b50565b610bb06040830184610b6b565b949350505050565b6000610bc3826109af565b9050919050565b610bd381610bb8565b82525050565b6000602082019050610bee6000830184610bca565b92915050565b600080fd5b600080fd5b7f4e487b7100000000000000000000000000000000000000000000000000000000600052604160045260246000fd5b610c3682610b06565b810181811067ffffffffffffffff82111715610c5557610c54610bfe565b5b80604052505050565b6000610c68610a49565b9050610c748282610c2d565b919050565b600067ffffffffffffffff821115610c9457610c93610bfe565b5b610c9d82610b06565b9050602081019050919050565b82818337600083830152505050565b6000610ccc610cc784610c79565b610c5e565b905082815260208101848484011115610ce857610ce7610bf9565b5b610cf3848285610caa565b509392505050565b600082601f830112610d1057610d0f610bf4565b5b8135610d20848260208601610cb9565b91505092915050565b60008060408385031215610d4057610d3f610a53565b5b6000610d4e85828601610a7e565b925050602083013567ffffffffffffffff811115610d6f57610d6e610a58565b5b610d7b85828601610cfb565b9150509250929050565b6000602082019050610d9a6000830184610b50565b92915050565b600080600060608486031215610db957610db8610a53565b5b6000610dc786828701610a7e565b935050602084013567ffffffffffffffff811115610de857610de7610a58565b5b610df486828701610cfb565b9250506040610e0586828701610a7e565b9150509250925092565b7f4f6e6c79206d65726368616e742063616e2063616c6c20746869730000000000600082015250565b6000610e45601b83610acb565b9150610e5082610e0f565b602082019050919050565b60006020820190508181036000830152610e7481610e38565b9050919050565b600081519050610e8a81610a67565b92915050565b600060208284031215610ea657610ea5610a53565b5b6000610eb484828501610e7b565b91505092915050565b7f4e6f2066756e647320746f207769746864726177000000000000000000000000600082015250565b6000610ef3601483610acb565b9150610efe82610ebd565b602082019050919050565b60006020820190508181036000830152610f2281610ee6565b9050919050565b6000604082019050610f3e6000830185610bca565b610f4b6020830184610b50565b9392505050565b610f5b81610b5f565b8114610f6657600080fd5b50565b600081519050610f7881610f52565b92915050565b600060208284031215610f9457610f93610a53565b5b6000610fa284828501610f69565b91505092915050565b7f5769746864726177616c206661696c6564000000000000000000000000000000600082015250565b6000610fe1601183610acb565b9150610fec82610fab565b602082019050919050565b6000602082019050818103600083015261101081610fd4565b9050919050565b7f4e487b7100000000000000000000000000000000000000000000000000000000600052602260045260246000fd5b6000600282049050600182168061105e57607f821691505b60208210810361107157611070611017565b5b50919050565b7f50726f6475637420646f6573206e6f7420657869737400000000000000000000600082015250565b60006110ad601683610acb565b91506110b882611077565b602082019050919050565b600060208201905081810360008301526110dc816110a0565b9050919050565b60006060820190506110f86000830186610bca565b6111056020830185610bca565b6111126040830184610b50565b949350505050565b7f55534443207472616e73666572206661696c6564000000000000000000000000600082015250565b6000611150601483610acb565b915061115b8261111a565b602082019050919050565b6000602082019050818103600083015261117f81611143565b9050919050565b600060408201905061119b6000830185610b50565b81810360208301526111ad8184610b17565b90509392505050565b60008190508160005260206000209050919050565b60006020601f8301049050919050565b600082821b905092915050565b6000600883026112187fffffffffffffffffffffffffffffffffffffffffffffffffffffffffffffffff826111db565b61122286836111db565b95508019841693508086168417925050509392505050565b600061125561125061124b84610a5d565b6109cf565b610a5d565b9050919050565b6000819050919050565b61126f8361123a565b61128361127b8261125c565b8484546111e8565b825550505050565b600090565b61129861128b565b6112a3818484611266565b505050565b5b818110156112c7576112bc600082611290565b6001810190506112a9565b5050565b601f82111561130c576112dd816111b6565b6112e6846111cb565b810160208510156112f5578190505b611309611301856111cb565b8301826112a8565b50505b505050565b600082821c905092915050565b600061132f60001984600802611311565b1980831691505092915050565b6000611348838361131e565b9150826002028217905092915050565b61136182610ac0565b67ffffffffffffffff81111561137a57611379610bfe565b5b6113848254611046565b61138f8282856112cb565b600060209050601f8311600181146113c257600084156113b0578287015190505b6113ba858261133c565b865550611422565b601f1984166113d0866111b6565b60005b828110156113f8578489015182556001820191506020850194506020810190506113d3565b868310156114155784890151611411601f89168261131e565b8355505b6001600288020188555050505b505050505050565b600060408201905081810360008301526114448185610b17565b90506114536020830184610b50565b939250505056fea2646970667358221220ca20affcb1bcb94df09663876bcdf45607200ca4afcba52032a50d0ed532e11164736f6c63430008140033",
  "linkReferences": {},
  "deployedLinkReferences": {}
}